:100000000C943A000C944F000C9457010C944F0040
:100010000C944F000C944F000C944F000C944F0024
:100020000C944F000C944F000C944F000C944F0014
:100030000C944F000C944F000C944F000C944F0004
:100040000C944F000C944F000C944F000C944F00F4
:100050000C944F00880392039C03A603B003BA03D9
:10006000C403CE03EE03FE030E041E042E043E045E
:100070004E045E0411241FBECFE5D8E0DEBFCDBF25
:1000800010E0A0E6B0E0ECEDFFE002C005900D92BC
:10009000AE37B107D9F70E94C2000C94EC070C945C
:1000A0000000CF92DF92EF92FF92CF93DF9382E036
:1000B0000E94E403BC0180E090E00E94770626EFF6
:1000C00038E24CE950E40E94050720E030E040E2CD
:1000D00051E40E94D6050E9448066B017C01EB01A9
:1000E00080E090E00E946E0280E690E00E945B0259
:1000F0002FEF89E698E1215080409040E1F700C061
:100100000000CD31D10528F060E080E00E94A60219
:1001100005C0669718F480E00E94EE028FE39CE928
:100120000197F1F700C000008C2DDF91CF91FF9077
:10013000EF90DF90CF90089581E00E94E4039695C0
:1001400087959695879583BD682F82E00E948A05E2
:100150008FE39CE90197F1F700C0000008950E9429
:1001600021032FEF83ED90E3215080409040E1F791
:1001700000C00000089582E085BF80E882BB80EE69
:100180008BBF08950E94C8010E94C2050E944403CB
:100190000E9425030E944A030E94840567E081E0D3
:1001A0000E9463030E948C020E9413030E94BB0002
:1001B00078940E940A028FEF0E94D1052FEF31EE52
:1001C00094E0215030409040E1F700C000008130C1
:1001D000B1F40E943703C82F80E00E94D10582301D
:1001E00019F40E942B03E5CF813021F48C2F0E945B
:1001F000D105DFCF8330E9F60E943103DACF8230B8
:10020000B1F40E945603C82F88E00E94D1058230C5
:1002100019F40E949C00CDCF813021F48C2F0E94D4
:10022000D105C7CF833029F60E945003C2CF833057
:1002300051F580E00E94D105813089F48AEB0E945B
:10024000AF0083E690E00E945B022FEF34E38CE086
:10025000215030408040E1F700C00000AACF82303A
:1002600009F0A7CF86E40E94AF0080E790E00E94EB
:100270005B029FEF24E33CE0915020403040E1F7E7
:1002800000C0000096CF843009F093CF0E94510047
:1002900090E08D31910520F080E00E94D10589CF5A
:1002A000459708F086CF81E00E94D10582CF1F924A
:1002B0000F920FB60F9211242F933F934F935F939A
:1002C0006F937F938F939F93AF93BF93EF93FF931E
:1002D0000E949C00FF91EF91BF91AF919F918F91F0
:1002E0007F916F915F914F913F912F910F900FBE32
:1002F0000F901F901895CF93C82F40E061E081E0E8
:100300000E94E60440E062E081E00E94E60440E0F2
:1003100063E081E00E94E6048FE99FE00197F1F736
:1003200000C000008BB39C2F907F8F70892B8BBBFC
:1003300041E063E081E00E94E6048FE99FE00197DD
:10034000F1F700C0000040E063E081E00E94E604B5
:1003500020E1C29FC00111249BB39F70892B8BBBEE
:1003600041E063E081E00E94E6048FE99FE00197AD
:10037000F1F700C0000040E063E081E00E94E60485
:100380008FE39FE10197F1F700C00000CF9108953E
:1003900041E061E081E00E94750441E062E081E0BB
:1003A0000E94750441E063E081E00E94750441E031
:1003B00064E080E00E94750441E065E080E00E9416
:1003C000750441E066E080E00E94750441E067E06A
:1003D00080E00E9475048FE39FE10197F1F700C070
:1003E000000083E30E947B0182E30E947B0188E29C
:1003F0000E947B0181E00E947B0182E00E947B01E0
:100400008CE00E947B018FE19EE40197F1F700C030
:100410000000089581E00E947B010895CF93C82FCA
:1004200041E061E081E00E94E60440E062E081E0BA
:100430000E94E60440E063E081E00E94E6048FE968
:100440009FE00197F1F700C000008BB39C2F907FD5
:100450008F70892B8BBB41E063E081E00E94E60452
:100460008FE99FE00197F1F700C0000040E063E0F2
:1004700081E00E94E60420E1C29FC00111249BB3E9
:100480009F70892B8BBB41E063E081E00E94E60412
:100490008FE99FE00197F1F700C0000040E063E0C2
:1004A00081E00E94E6048FE39FE10197F1F700C02D
:1004B0000000CF910895CF93DF93EC0109C00E9413
:1004C0000E028FE39FE10197F1F700C00000219633
:1004D00088818111F4CFDF91CF910895CF93DF937D
:1004E000CDB7DEB72A970FB6F894DEBF0FBECDBFEB
:1004F0002AE030E0AE014F5F5F4F0E94A007CE01BF
:1005000001960E945B022A960FB6F894DEBF0FBEDA
:10051000CDBFDF91CF91089541E064E082E00E9479
:10052000750441E062E083E00E94750441E061E00F
:1005300083E00E94750441E063E083E00E9475045B
:1005400041E066E083E00E9475040895CF93C62FD2
:10055000882319F0813009F13FC041E064E082E076
:100560000E94E604CC2319F0C13061F035C041E0AF
:1005700062E083E00E94E60440E061E083E00E94E4
:10058000E6042AC040E062E083E00E94E60441E025
:1005900061E083E00E94E6041FC041E065E082E084
:1005A0000E94E604CC2319F0C13061F015C041E08F
:1005B00063E083E00E94E60440E066E083E00E949E
:1005C000E6040AC040E063E083E00E94E60441E004
:1005D00066E083E00E94E604CF910895882319F035
:1005E000813089F0089540E064E082E00E94E604F2
:1005F00040E062E083E00E94E60440E061E083E0E6
:100600000E94E604089540E065E082E00E94E6046E
:1006100040E063E083E00E94E60440E066E083E0BF
:100620000E94E604089581B3806281BB1DBC1CBC9E
:1006300083EC99E097BD86BD82E88FBD8BE18EBDCE
:10064000089590E09BBD8ABD089541E066E083E097
:100650000E947504089541E066E083E00E94E6048C
:10066000089540E066E083E00E94E604089566E0B5
:1006700083E00E945605813019F0882319F008950F
:1006800081E0089580E0089541E067E083E00E9402
:100690007504089541E067E083E00E9475040895C1
:1006A00040E067E083E00E94E604089567E083E0AD
:1006B0000E945605813019F0882319F0089581E0D1
:1006C000089580E00895813059F018F0823079F073
:1006D00014C087B18F7787B987B18F7B87B90DC079
:1006E00087B18F7787B987B1806487B906C087B132
:1006F000806887B987B1806487B9862F90E0883099
:10070000910508F054C0FC01E65DFF4F0C9486078C
:1007100086B18B7F86B986B18D7F86B986B18E7F93
:1007200086B945C086B18B7F86B986B18D7F86B983
:1007300086B1816086B93BC086B18B7F86B986B1B0
:10074000826086B986B18E7F86B931C086B18B7FD3
:1007500086B986B1826086B986B1816086B927C0C4
:1007600086B1846086B986B18D7F86B986B18E7F69
:1007700086B91DC086B1846086B986B18D7F86B981
:1007800086B1816086B913C086B1846086B986B1AE
:10079000826086B986B18E7F86B909C086B18460D1
:1007A00086B986B1826086B986B1816086B986B124
:1007B000806886B986B1877F86B986B1806286B93E
:1007C00087B18F7D87B9089590E08830910508F052
:1007D00084C0FC01EE5CFF4F0C94860787B18F7ECE
:1007E00087B987B1877F87B987B18B7F87B987B191
:1007F0008D7F87B987B18E7F87B96FC087B18F7EB4
:1008000087B987B1877F87B987B18B7F87B987B170
:100810008D7F87B987B1816087B95FC087B18F7ECF
:1008200087B987B1877F87B987B18B7F87B987B150
:10083000826087B987B18E7F87B94FC087B18F7EBD
:1008400087B987B1877F87B987B18B7F87B987B130
:10085000826087B987B1816087B93FC087B18F7ED9
:1008600087B987B1877F87B987B1846087B987B136
:100870008D7F87B987B18E7F87B92FC087B18F7E73
:1008800087B987B1877F87B987B1846087B987B116
:100890008D7F87B987B1816087B91FC087B18F7E8F
:1008A00087B987B1877F87B987B1846087B987B1F6
:1008B000826087B987B18E7F87B90FC087B18F7E7D
:1008C00087B987B1877F87B987B1846087B987B1D6
:1008D000826087B987B1816087B986B1806486B943
:1008E0003699FECF84B195B108954423B9F14130D2
:1008F00009F06BC0813089F028F08230C9F0833074
:1009000011F108952AB381E090E002C0880F991F89
:100910006A95E2F7822B8ABB089527B381E090E0C5
:1009200002C0880F991F6A95E2F7822B87BB089552
:1009300024B381E090E002C0880F991F6A95E2F726
:10094000822B84BB089521B381E090E002C0880F20
:10095000991F6A95E2F7822B81BB0895813091F04F
:1009600028F08230D9F0833029F108952AB381E04C
:1009700090E002C0880F991F6A95E2F78095822364
:100980008ABB089527B381E090E002C0880F991FC9
:100990006A95E2F78095822387BB089524B381E0AE
:1009A00090E002C0880F991F6A95E2F78095822334
:1009B00084BB089521B381E090E002C0880F991FA5
:1009C0006A95E2F78095822381BB08954130A1F5B5
:1009D000813089F028F08230C9F0833011F1089518
:1009E0002BB381E090E002C0880F991F6A95E2F76F
:1009F000822B8BBB089528B381E090E002C0880F62
:100A0000991F6A95E2F7822B88BB089525B381E090
:100A100090E002C0880F991F6A95E2F7822B85BB90
:100A2000089522B381E090E002C0880F991F6A9573
:100A3000E2F7822B82BB0895411137C0813091F0DB
:100A400028F08230D9F0833029F108952BB381E06A
:100A500090E002C0880F991F6A95E2F78095822383
:100A60008BBB089528B381E090E002C0880F991FE6
:100A70006A95E2F78095822388BB089525B381E0CB
:100A800090E002C0880F991F6A95E2F78095822353
:100A900085BB089522B381E090E002C0880F991FC2
:100AA0006A95E2F78095822382BB0895813079F0C0
:100AB00028F08230A9F08330E1F024C089B390E0BF
:100AC00002C0959587956A95E2F78170089586B37F
:100AD00090E002C0959587956A95E2F78170089538
:100AE00083B390E002C0959587956A95E2F781708F
:100AF000089580B390E002C0959587956A95E2F7D6
:100B00008170089580E0089581E685BD81B3806895
:100B100081BB0895813069F028F0823089F08330FC
:100B200001F1089585B58F7D85BD85B58F7E85BD25
:100B3000089585B58F7D85BD85B5806185BD089596
:100B400085B5806285BD85B58F7E85BD80E091E0ED
:100B5000861B910964E670E00E947207615063BDD4
:100B6000089585B5806285BD85B5806185BD80E0CD
:100B700091E0861B910964E670E00E94720761951E
:100B800063BD089587B38F7D87BB87B3806487BBC0
:100B900087B38F7787BB87B38F7E87BB83E48DB99D
:100BA00008958FB9779BFECF8FB108950E94EA0513
:100BB0000C94CB060E94C40658F00E94BD0640F07B
:100BC00029F45F3F29F00C94B40651110C94FF06F0
:100BD0000C94BA060E94DC0668F39923B1F35523FE
:100BE00091F3951B550BBB27AA2762177307840740
:100BF00038F09F5F5F4F220F331F441FAA1FA9F3D6
:100C000035D00E2E3AF0E0E832D091505040E695C3
:100C1000001CCAF72BD0FE2F29D0660F771F881F24
:100C2000BB1F261737074807AB07B0E809F0BB0B17
:100C3000802DBF01FF2793585F4F3AF09E3F51052B
:100C400078F00C94B4060C94FF065F3FE4F3983EF2
:100C5000D4F3869577956795B795F7959F5FC9F714
:100C6000880F911D9695879597F90895E1E0660F95
:100C7000771F881FBB1F621773078407BA0720F00E
:100C8000621B730B840BBA0BEE1F88F7E095089577
:100C90000E94E40688F09F5798F0B92F9927B75122
:100CA000B0F0E1F0660F771F881F991F1AF0BA9510
:100CB000C9F714C0B13091F00E94FE06B1E008956A
:100CC0000C94FE06672F782F8827B85F39F0B93F5C
:100CD000CCF3869577956795B395D9F73EF49095C3
:100CE0008095709561957F4F8F4F9F4F0895E89441
:100CF00009C097FB3EF490958095709561957F4F64
:100D00008F4F9F4F9923A9F0F92F96E9BB27939511
:100D1000F695879577956795B795F111F8CFFAF421
:100D2000BB0F11F460FF1BC06F5F7F4F8F4F9F4F52
:100D300016C0882311F096E911C0772321F09EE8B0
:100D4000872F762F05C0662371F096E8862F70E016
:100D500060E02AF09A95660F771F881FDAF7880FF0
:100D60009695879597F9089597F99F6780E870E0C1
:100D700060E008959FEF80EC089500240A94161611
:100D8000170618060906089500240A941216130679
:100D9000140605060895092E0394000C11F4882307
:100DA00052F0BB0F40F4BF2B11F460FF04C06F5F23
:100DB0007F4F8F4F9F4F089557FD9058440F551FF9
:100DC00059F05F3F71F04795880F97FB991F61F0CD
:100DD0009F3F79F087950895121613061406551F44
:100DE000F2CF4695F1DF08C0161617061806991FB0
:100DF000F1CF86957105610508940895E894BB27A5
:100E000066277727CB0197F908950E9418070C945D
:100E1000CB060E94BD0638F00E94C40620F0952340
:100E200011F00C94B4060C94BA0611240C94FF062D
:100E30000E94DC0670F3959FC1F3950F50E0551F9B
:100E4000629FF001729FBB27F00DB11D639FAA271F
:100E5000F00DB11DAA1F649F6627B00DA11D661F6E
:100E6000829F2227B00DA11D621F739FB00DA11D8F
:100E7000621F839FA00D611D221F749F3327A00D49
:100E8000611D231F849F600D211D822F762F6A2FE5
:100E900011249F5750409AF0F1F088234AF0EE0F4A
:100EA000FF1FBB1F661F771F881F91505040A9F777
:100EB0009E3F510580F00C94B4060C94FF065F3FF2
:100EC000E4F3983ED4F3869577956795B795F795B3
:100ED000E7959F5FC1F7FE2B880F911D969587952B
:100EE00097F9089597FB072E16F4009407D077FD25
:100EF00009D00E948C0707FC05D03EF4909581959F
:100F00009F4F0895709561957F4F0895EE0FFF1FD5
:100F10000590F491E02D0994AA1BBB1B51E107C079
:100F2000AA1FBB1FA617B70710F0A61BB70B881F79
:100F3000991F5A95A9F780959095BC01CD01089508
:100F40002532310520F4223010F00C94AB07FA0161
:100F50001082CA010895BB272A3051F4992342F424
:100F6000BDE290958095709561957F4F8F4F9F4F13
:100F70000C94BB07BB27FA01A62F621771058105E8
:100F80009105330B30FB66F0AA27660F771F881F89
:100F9000991FAA1FA21710F0A21B63953850A9F73A
:100FA000A05DAA3308F0A95DA19336F7B111B19302
:100FB0001082CA010C94DC07DC01FC01672F7191DF
:100FC0007723E1F7329704C07C916D93708362912F
:0C0FD000AE17BF07C8F30895F894FFCFD8
:100FDC005E4300446F6F7273204F70656E656400E2
:0E0FEC00446F6F727320436C6F736564000076
:00000001FF
