:100000000C9434000C9451000C9451000C94510049
:100010000C9451000C9451000C9451000C9451001C
:100020000C9451000C9451000C9451000C9451000C
:100030000C9451000C9451000C9451000C945100FC
:100040000C9451000C9451000C9451000C945100EC
:100050000C9451007200760079005D00600063002E
:10006000660069006C006F0011241FBECFE5D8E068
:10007000DEBFCDBF12E0A0E6B0E0E6E5F6E102C0EB
:1000800005900D92A63AB107D9F722E0A6EAB2E0B0
:1000900001C01D92A63AB207E1F70E9492000C94AB
:1000A000290B0C94000090E0FC01F097EA30F10578
:1000B000E0F4E65DFF4F0C94A20A83E090E008951F
:1000C00084E090E0089585E090E0089586E090E077
:1000D000089587E090E0089588E090E0089589E031
:1000E00090E0089580E090E00895089581E090E028
:1000F000089582E090E00895DC0190E00DC0292F82
:1001000030E0FD01E20FF31F5081FB01E20FF31F0E
:100110002081521305C09F5F941788F381E00895F2
:1001200080E00895CF93DF93CDB7DEB7AE970FB6DB
:10013000F894DEBF0FBECDBF23E041E060E080E079
:100140000E94740A0E943D080E9467070E94600A8C
:10015000712C00E00F2EF3E0CF2ED12CF02DE12CEE
:10016000F12C412C512C10E0F9C380E091E00E9469
:10017000040B813039F482E091E00E94040B81305D
:1001800009F4D6C10E947F0840E650E060E080E0BC
:100190000E9401094CE650E060E081E00E94010904
:1001A0000E94880A2FEF31EE94E0215030409040B9
:1001B000E1F700C00000813321F0823309F4D6C09A
:1001C000B7C10E94B407082F8FE39CE90197F1F7AC
:1001D00000C00000003309F4C7C08FE39CE9019719
:1001E000F1F700C000000E947F0848E750E060E09F
:1001F00080E00E9401090E94880AB82E9FEF21EE3C
:1002000034E0915020403040E1F700C000000E94EF
:1002100053001C016B2D70E080E090E00E94E30829
:1002200084E890E00E94840A0E947F0849E850E038
:1002300060E080E00E94010980EC0E94F007A12CA0
:10024000B12C0CC00E94880AE1E0F0E0EC0FFD1F29
:10025000EA0DFB1D80838FEFA81AB80A410199248B
:100260008A149B047CF78FE890E00E948C0AAE0110
:100270004F5F5F4F65E080E00E94010944E950E074
:1002800060E081E00E94010941C08FE39CE9019791
:10029000F1F700C000000E94880A0033B9F19FEC1A
:1002A000980F993090F0013381F0023371F00333ED
:1002B00061F0043351F0053341F0063331F0073378
:1002C00021F0083311F0093309F50E945300EFE1E2
:1002D000F0E0EC0FFD1FEE0DFF1D8083BC0180E000
:1002E00090E00E94E3089FEF20E732E09150204029
:1002F0003040E1F700C0000069E06E0D4EE950E0CB
:1003000081E00E9401098FEFE81AF80A94E0E916EB
:10031000F10408F4BACF622D8EE290E00E941C0B2B
:10032000A40168E270E0CE0101960E94120B44E045
:1003300050E063E270E0CE014F960E94120B61E044
:1003400080E091E00E941C0B0E947F0880EA90E010
:100350000E94D0082FEF31EE84E0215030408040E1
:10036000E1F700C00000E4C00E947F080E94B407CB
:10037000082F8FE39CE90197F1F700C000000033DC
:1003800009F4D4C08FE39CE90197F1F700C00000A5
:100390000E947F0848E750E060E080E00E94010989
:1003A0000E94880AF82E9FEF21EE34E09150204001
:1003B0003040E1F700C000000E9453004C016F2D57
:1003C00070E080E090E00E94E30884E890E00E9402
:1003D000840A0E947F0849E850E060E080E00E94C3
:1003E000010980EC0E94F007E12CF12C0CC00E9466
:1003F000880AE0E1F0E0EC0FFD1FEE0DFF1D8083A9
:100400008FEFE81AF80A5401BB24AE14BF047CF73E
:100410008FE890E00E948C0AAE01405F5F4F65E07C
:1004200080E00E94010944E950E060E081E00E9420
:1004300001099FEF21EE34E0915020403040E1F778
:1004400000C00000E12CF12C41C08FE39CE9019732
:10045000F1F700C000000E94880A0033B9F19FEC58
:10046000980F993090F0013381F0023371F003332B
:1004700061F0043351F0053341F0063331F00733B6
:1004800021F0083311F0093309F50E945300E3E22B
:10049000F0E0EC0FFD1FEE0DFF1D8083BC0180E03E
:1004A00090E00E94E3089FEF20E732E09150204067
:1004B0003040E1F700C0000069E06E0D4EE950E009
:1004C00081E00E9401098FEFE81AF80A94E0E9162A
:1004D000F10408F4BACF682D8CE390E00E941C0B65
:1004E000A50162E370E0CE0140960E94120B44E049
:1004F00050E067E370E0CE0183960E94120B61E04A
:1005000082E091E00E941C0B0E947F0881EB90E04A
:100510000E94D0082FEF34E38CE02150304080401F
:10052000E1F700C000000E947F0802C0E12CF12C1E
:100530000E947F0842EC50E060E080E00E940109E8
:100540000E94880AB82EE5C191E3B912F0C00E945A
:100550007F0883ED90E00E94D0080E947F0849E860
:1005600050E060E080E00E9401098EE290E00E948D
:100570000C0BAC01552768E270E0CE0101960E9499
:10058000F40AAE014F5F5F4F66E080E00E94010910
:100590008FE39CE90197F1F700C0000044E950E0C7
:1005A00060E081E00E9401091BA61CA61DA61EA6F4
:1005B000E12CF12C41C08FE39CE90197F1F700C0D9
:1005C00000000E94880A0033B9F19FEC980F99301F
:1005D00090F0013381F0023371F0033361F00433A2
:1005E00051F0053341F0063331F0073321F0083381
:1005F00011F0093309F50E945300EBE2F0E0EC0F33
:10060000FD1FEE0DFF1D8083BC0180E090E00E9485
:10061000E3089FEF20E732E0915020403040E1F7BF
:1006200000C0000069E06E0D4EE950E081E00E94DC
:1006300001098FEFE81AF80A94E0E916F10408F4CA
:10064000BACF81E08FA382E088A784E089A783E006
:100650008AA70E947F0844E050E063E270E0CE0188
:1006600087960E94F40A44E0BE01695D7F4FCE0187
:100670008B960E947C008130B9F40E947F088EED39
:1006800090E00E94D0084BEE50E060E081E00E94D4
:1006900001092FEF34E38CE0215030408040E1F736
:1006A00000C0000011E035C1811133C187EF90E037
:1006B0000E94D00873940E947F0883E091E00E941A
:1006C000D00843E151E060E081E00E9401099FEF22
:1006D00022E537E0915020403040E1F700C00000B3
:1006E0000E947F0880E291E00E94D0088FEF92E59F
:1006F00027E0815090402040E1F700C0000041E336
:1007000051E060E081E00E940109B60180E090E0E4
:100710000E94E3083FEF82E597E03150804090402F
:10072000E1F700C0000021E0C21AD108F2C032E3B4
:10073000B312EFC00E947F0887E391E00E94D008C7
:100740000E947F0849E850E060E080E00E940109D3
:100750008CE390E00E940C0BAC01552762E370E043
:10076000CE0140960E94F40AAE01405F5F4F66E002
:1007700080E00E9401098FE39CE90197F1F700C036
:10078000000044E950E060E081E00E9401091BA6FE
:100790001CA61DA61EA6E12CF12C41C08FE39CE9EE
:1007A0000197F1F700C000000E94880A0033B9F1F8
:1007B0009FEC980F993090F0013381F0023371F083
:1007C000033361F0043351F0053341F0063331F067
:1007D000073321F0083311F0093309F50E94530063
:1007E000EBE2F0E0EC0FFD1FEE0DFF1D8083BC017E
:1007F00080E090E00E94E3089FEF20E732E0915014
:1008000020403040E1F700C0000069E06E0D4EE985
:1008100050E081E00E9401098FEFE81AF80A94E0A5
:10082000E916F10408F4BACF81E08FA382E088A72B
:1008300084E089A783E08AA70E947F0844E050E013
:1008400067E370E0CE0187960E94F40A44E0BE019F
:10085000695D7F4FCE018B960E947C008130B9F498
:100860000E947F088EED90E00E94D0084BEE50E091
:1008700060E081E00E9401092FEF34E38CE0215019
:1008800030408040E1F700C0000012E042C081111A
:1008900040C087EF90E00E94D00873940E947F08C8
:1008A00083E091E00E94D00843E151E060E081E004
:1008B0000E9401099FEF22E537E09150204030402F
:1008C000E1F700C000000E947F0880E291E00E94F2
:1008D000D0088FEF92E527E0815090402040E1F76B
:1008E00000C0000041E351E060E081E00E940109A6
:1008F000B60180E090E00E94E3083FEF82E597E0D8
:10090000315080409040E1F700C0000021E0C21A61
:10091000D10832E0371518F0112309F415CE83E021
:10092000781219C00E947F0882E491E00E94D008EA
:1009300041E551E060E081E00E9401090E947F08EA
:1009400081E691E00E94D00842E751E060E081E05A
:100950000E94010910E09FEF491A590A41145104FD
:1009600009F403CC113021F0123009F476C1A5C28C
:100970000E947F084BE751E060E080E00E9401099F
:100980004CE851E060E081E00E9401092FEF39E678
:1009900088E1215030408040E1F700C000000E9413
:1009A000880A082F80E00E946F0A023309F46AC0A7
:1009B00018F4013341F081C2033309F4C2C0043397
:1009C00009F403C17AC281E00E946F0A0E947F0885
:1009D00049E951E060E080E00E9401099FEF21EECB
:1009E00034E0915020403040E1F700C000000E9408
:1009F0007F0840EA51E060E080E00E94010946EB98
:100A000051E060E081E00E9401090E94880A82337F
:100A100061F482E00E946F0A0E947F0847EC51E077
:100A200060E080E00E94010948C2813321F581E045
:100A30000E946F0A0E947F0881E00E946F0A813045
:100A400039F445ED51E060E080E00E94010907C003
:100A5000811105C043EE51E060E00E9401098FEF73
:100A600099E628E1815090402040E1F700C0000065
:100A70000E947F0822C2833309F01FC283E00E94D4
:100A80006F0A1BC20E947F0842EF51E060E080E0E5
:100A90000E9401093FEF89E698E131508040904083
:100AA000E1F700C0000082E00E946F0A0E947F0808
:100AB00040EA51E060E080E00E94010946EB51E02D
:100AC00060E081E00E9401090E94880A823361F49B
:100AD00082E00E946F0A0E947F0847EC51E060E0CC
:100AE00080E00E940109E9C1813321F581E00E9483
:100AF0006F0A0E947F0881E00E946F0A813039F4FA
:100B000049EF51E060E080E00E94010907C08111D7
:100B100005C048E052E060E00E9401092FEF39E68D
:100B200088E1215030408040E1F700C000000E9481
:100B30007F08C3C1833309F0C0C183E00E946F0AFC
:100B4000BCC183E00E946F0A0E947F0848E152E026
:100B500060E080E00E94010944E252E060E081E050
:100B60000E9401099FEF29E638E191502040304072
:100B7000E1F700C000000E94880A9FEF21EE34E0F8
:100B8000915020403040E1F700C00000813351F423
:100B900081E00E946F0A0E947F0881E392E00E9438
:100BA000D00809C0823339F482E00E946F0A8DE3D5
:100BB00092E00E94D0088FEF99E628E181509040A2
:100BC0002040E1F700C0000078C184E00E946F0A75
:100BD0000E947F083FEF81EE94E0315080409040CA
:100BE000E1F700C000004BE452E060E080E00E94CA
:100BF000010948E552E060E081E00E9401090E949D
:100C0000880A2FEF31EE94E0215030409040E1F718
:100C100000C00000813379F40E947F0846E652E06C
:100C200060E080E00E94010942E752E060E081E07C
:100C30000E94010942C1823309F03FC10E947F082E
:100C40004CE752E060E080E00E94010947E852E092
:100C500060E081E00E94010930C10E947F084BE7FB
:100C600051E060E080E00E94010941E952E060E06B
:100C700081E00E9401092FEF39E688E121503040E0
:100C80008040E1F700C000000E94880A082F80E041
:100C90000E946F0A023309F465C0033309F4C1C02E
:100CA000013309F00AC181E00E946F0A0E947F08A7
:100CB00049E951E060E080E00E9401099FEF21EEE8
:100CC00034E0915020403040E1F700C000000E9425
:100CD0007F0840EA51E060E080E00E94010946EBB5
:100CE00051E060E081E00E9401090E94880A82339D
:100CF00061F482E00E946F0A0E947F0847EC51E095
:100D000060E080E00E940109D8C0813321F581E0D4
:100D10000E946F0A0E947F0881E00E946F0A813062
:100D200039F445ED51E060E080E00E94010907C020
:100D3000811105C043EE51E060E00E9401098FEF90
:100D400099E628E1815090402040E1F700C0000082
:100D50000E947F08B2C0833309F0AFC083E00E94D5
:100D60006F0AABC00E947F0842EF51E060E080E074
:100D70000E9401093FEF89E698E1315080409040A0
:100D8000E1F700C0000082E00E946F0A0E947F0825
:100D900040EA51E060E080E00E94010946EB51E04A
:100DA00060E081E00E9401090E94880A823361F4B8
:100DB00082E00E946F0A0E947F0847EC51E060E0E9
:100DC00080E00E94010979C0813321F581E00E9411
:100DD0006F0A0E947F0881E00E946F0A813039F417
:100DE00049EF51E060E080E00E94010907C08111F5
:100DF00005C048E052E060E00E9401092FEF39E6AB
:100E000088E1215030408040E1F700C000000E949E
:100E10007F0853C0833309F050C083E00E946F0AFB
:100E20004CC084E00E946F0A0E947F089FEF21EE71
:100E300034E0915020403040E1F700C000004BE426
:100E400052E060E080E00E94010948E552E060E085
:100E500081E00E9401090E94880A9FEF21EE34E0A0
:100E6000915020403040E1F700C00000813391F400
:100E70000E947F0846E652E060E080E00E9401099F
:100E800042E752E060E081E00E94010984E00E94B4
:100E90006F0A13C0823389F40E947F084CE752E046
:100EA00060E080E00E94010947E852E060E081E0F4
:100EB0000E94010984E00E946F0A8FEF93EC29E001
:100EC000815090402040E1F700C000004BCD41E050
:100ED00060E082E00E941D0941E061E082E00E9442
:100EE0001D0941E062E082E00E941D0941E063E0EB
:100EF00082E00E941D0941E060E082E00E948E09CC
:100F000041E061E082E00E948E0941E062E082E01F
:100F10000E948E0941E063E082E00E948E0940E079
:100F200064E082E00E941D0940E065E082E00E94EA
:100F30001D0940E066E082E00E941D0940E067E094
:100F400082E00E941D0964E082E00E942C0A65E0B4
:100F500082E00E942C0A66E082E00E942C0A67E090
:100F600082E00E942C0A08951F93CF93DF93D0E074
:100F700010E02FC040E06D2F82E00E948E09C4E097
:100F800020C06C2F82E00E94FE09811119C0EC2F55
:100F9000F0E03497EE0FFF1FEE0FFF1FEA56FD4FF4
:100FA000ED0FF11D108104C06C2F82E00E94FE093C
:100FB0008823D1F38FE39CE90197F1F700C000008B
:100FC000CF5FC830F0F241E06D2F82E00E948E09C1
:100FD000DF5FD43078F2812FDF91CF911F91089598
:100FE000CF93C82F40E061E081E00E948E0940E08D
:100FF00062E081E00E948E0940E063E081E00E94AF
:101000008E098FE99FE00197F1F700C000008BB3D4
:101010009C2F907F8F70892B8BBB41E063E081E038
:101020000E948E098FE99FE00197F1F700C0000050
:1010300040E063E081E00E948E0920E1C29FC00190
:1010400011249BB39F70892B8BBB41E063E081E04F
:101050000E948E098FE99FE00197F1F700C0000020
:1010600040E063E081E00E948E098FE39FE10197F9
:10107000F1F700C00000CF91089541E061E081E008
:101080000E941D0941E062E081E00E941D0941E0EB
:1010900063E081E00E941D0941E064E080E00E947D
:1010A0001D0941E065E080E00E941D0941E066E025
:1010B00080E00E941D0941E067E080E00E941D0978
:1010C0008FE39FE10197F1F700C0000083E30E94E6
:1010D000F00782E30E94F00788E20E94F00781E0B7
:1010E0000E94F00782E00E94F0078CE00E94F00767
:1010F0008FE19EE40197F1F700C00000089581E0C0
:101100000E94F0070895CF93C82F41E061E081E08D
:101110000E948E0940E062E081E00E948E0940E07A
:1011200063E081E00E948E098FE99FE00197F1F76B
:1011300000C000008BB39C2F907F8F70892B8BBBDE
:1011400041E063E081E00E948E098FE99FE0019712
:10115000F1F700C0000040E063E081E00E948E09EA
:1011600020E1C29FC00111249BB39F70892B8BBBD0
:1011700041E063E081E00E948E098FE99FE00197E2
:10118000F1F700C0000040E063E081E00E948E09BA
:101190008FE39FE10197F1F700C00000CF91089520
:1011A000CF93DF93EC0109C00E9483088FE39FE196
:1011B0000197F1F700C00000219688818111F4CFDA
:1011C000DF91CF910895CF93DF93CDB7DEB72A9704
:1011D0000FB6F894DEBF0FBECDBF2AE030E0AE01FF
:1011E0004F5F5F4F0E94A80ACE0101960E94D0086F
:1011F0002A960FB6F894DEBF0FBECDBFDF91CF9118
:101200000895CF93DF93EA01811108C0603130F473
:10121000862F8F7080680E94F00709C0813039F4F2
:10122000603128F4862F8F70806C0E94F007CE0109
:101230000E94D008DF91CF9108954423B9F1413045
:1012400009F06BC0813089F028F08230C9F083301A
:1012500011F108952AB381E090E002C0880F991F30
:101260006A95E2F7822B8ABB089527B381E090E06C
:1012700002C0880F991F6A95E2F7822B87BB0895F9
:1012800024B381E090E002C0880F991F6A95E2F7CD
:10129000822B84BB089521B381E090E002C0880FC7
:1012A000991F6A95E2F7822B81BB0895813091F0F6
:1012B00028F08230D9F0833029F108952AB381E0F3
:1012C00090E002C0880F991F6A95E2F7809582230B
:1012D0008ABB089527B381E090E002C0880F991F70
:1012E0006A95E2F78095822387BB089524B381E055
:1012F00090E002C0880F991F6A95E2F780958223DB
:1013000084BB089521B381E090E002C0880F991F4B
:101310006A95E2F78095822381BB08954130A1F55B
:10132000813089F028F08230C9F0833011F10895BE
:101330002BB381E090E002C0880F991F6A95E2F715
:10134000822B8BBB089528B381E090E002C0880F08
:10135000991F6A95E2F7822B88BB089525B381E037
:1013600090E002C0880F991F6A95E2F7822B85BB37
:10137000089522B381E090E002C0880F991F6A951A
:10138000E2F7822B82BB0895411137C0813091F082
:1013900028F08230D9F0833029F108952BB381E011
:1013A00090E002C0880F991F6A95E2F7809582232A
:1013B0008BBB089528B381E090E002C0880F991F8D
:1013C0006A95E2F78095822388BB089525B381E072
:1013D00090E002C0880F991F6A95E2F780958223FA
:1013E00085BB089522B381E090E002C0880F991F69
:1013F0006A95E2F78095822382BB0895813079F067
:1014000028F08230A9F08330E1F024C089B390E065
:1014100002C0959587956A95E2F78170089586B325
:1014200090E002C0959587956A95E2F781700895DE
:1014300083B390E002C0959587956A95E2F7817035
:10144000089580B390E002C0959587956A95E2F77C
:101450008170089580E00895813089F028F082300D
:10146000C9F0833011F108952BB381E090E002C000
:10147000880F991F6A95E2F7822B8BBB089528B3DA
:1014800081E090E002C0880F991F6A95E2F7822BF5
:1014900088BB089525B381E090E002C0880F991FB2
:1014A0006A95E2F7822B85BB089522B381E090E034
:1014B00002C0880F991F6A95E2F7822B82BB0895BC
:1014C00087B3806287BB87B38F7B87BB87B3806816
:1014D00087BB87B3806187BB83E58DB908958FB9DA
:1014E000779BFECF8FB1089581B38E7F81BB81B38F
:1014F000826081BB8AB188698AB980B5866880BDFF
:1015000083E389B910BC08958CB95E9BFECF089522
:101510005F9BFECF8CB108950F931F93CF93DF9302
:101520008C01C0E0D0E003C00E94840A2196F8013B
:10153000EC0FFD1F80818111F7CFDF91CF911F91BB
:101540000F910895EE0FFF1F0590F491E02D09947F
:101550002532310520F4223010F00C94B30AFA0140
:101560001082CA010895BB272A3051F4992342F40E
:10157000BDE290958095709561957F4F8F4F9F4FFD
:101580000C94C30ABB27FA01A62F621771058105C7
:101590009105330B30FB66F0AA27660F771F881F73
:1015A000991FAA1FA21710F0A21B63953850A9F724
:1015B000A05DAA3308F0A95DA19336F7B111B193EC
:1015C0001082CA010C94E40ADC01FC01672F7191BE
:1015D0007723E1F7329704C07C916D937083629119
:1015E000AE17BF07C8F30895DC01CB01FC01E199F8
:1015F000FECF06C0FFBBEEBBE09A31960DB20D9256
:1016000041505040B8F70895E199FECF9FBB8EBB83
:10161000E09A99278DB30895A8E1B0E042E050E048
:101620000C94F60ADC01CB0103C02D910E941D0B26
:1016300041505040D0F70895262FE199FECF9FBB2F
:101640008EBB2DBB0FB6F894E29AE19A0FBE0196BD
:061650000895F894FFCF9D
:10165600313A5365742041646D696E00323A5365C0
:1016660074204775657374004E616D652073697AE1
:10167600653A2000646F6E65004E616D653A004400
:101686006F6E650050617373776F72643A002A005B
:1016960041646D696E20526567697374657265642D
:1016A6000047756573742052656769737465726562
:1016B6006400313A41646D696E20323A204775659F
:1016C60073740041646D696E204D6F646500436FED
:1016D600727265637420706173730057656C636F13
:1016E6006D6520736972002057726F6E6720706196
:1016F600737300706C65617365207265656E7465E1
:101706007220007468652070617373776F7264006D
:101716004E756D626572206F6620547269616C73D6
:10172600004E4F463A20004775657374204D6F642E
:10173600650057726F6E672050617373776F7264BE
:1017460000456E746572656420332054696D657357
:1017560000692077696C6C2063616C6C20393131CB
:1017660020003A293A293A283A2800313A526F6F2E
:101776006D312020323A526F6F6D3200333A446F2A
:101786006F722020343A414300526F6F6D20310052
:10179600313A53746174757320323A4F70656E2016
:1017A6006C6967687400333A5475726E204F46460A
:1017B600204C69676874004C6967687473206172AD
:1017C60065204F4E006C69676874732061726520EE
:1017D6006F6E006C696768747320617265206F664E
:1017E6006600526F6F6D203200526F6F6D206C690C
:1017F60067687473206F6E00526F6F6D206C696737
:10180600687473206F666600313A4F70656E2064A7
:101816006F6F7200323A436C6F736520446F6F725C
:1018260000446F6F7273204F70656E2100446F6FB6
:10183600727320436C6F7365642100313A5475727C
:101846006E206F6E20416300323A5475726E206FBF
:1018560066662041630054656D7020486967686557
:1018660072007468616E2033305E430054656D709B
:10187600204C6F776572007468616E2032315E436A
:1018860000333A4143003734312A3835323039365D
:06189600333D2B2D432F12
:00000001FF
